:100000000C942A000C9447000C9447000C94470071
:100010000C9447000C9447000C9447000C94470044
:100020000C9447000C9447000C9447000C94470034
:100030000C9447000C9447000C9447000C94470024
:100040000C9447000C9447000C9447000C94470014
:100050000C94470011241FBECFE5D8E0DEBFCDBF12
:1000600010E0A0E6B0E0EAE1F1E102C005900D92F7
:10007000A637B107D9F710E0A6E7B0E001C01D929E
:10008000A638B107E1F70E948E030C948B080C94FC
:100090000000843409F471C0853448F4823499F145
:1000A000833408F04DC0813409F083C00FC082361C
:1000B00051F1833620F4813609F07BC007C08336C6
:1000C00009F43EC0843609F074C057C0413069F469
:1000D0002AB381E090E0AC0102C0440F551F6A953D
:1000E000E2F7BA01622B6ABB08952AB381E090E07F
:1000F000AC0102C0440F551F6A95E2F7BA01609542
:1001000062236ABB0895413069F427B381E090E02F
:10011000AC0102C0440F551F6A95E2F7BA01622B89
:1001200067BB089527B381E090E0AC0102C0440FA3
:10013000551F6A95E2F7BA016095622367BB08957F
:10014000413069F424B381E090E0AC0102C0440F77
:10015000551F6A95E2F7BA01622B64BB089524B378
:1001600081E090E0AC0102C0440F551F6A95E2F7B0
:10017000BA016095622364BB0895413069F421B3EC
:1001800081E090E0AC0102C0440F551F6A95E2F790
:10019000BA01622B61BB089521B381E090E0AC010C
:1001A00002C0440F551F6A95E2F7BA0160956223B9
:1001B00061BB0895843409F471C0853448F48234F5
:1001C00099F1833408F04DC0813409F083C00FC029
:1001D000823651F1833620F4813609F07BC007C0A6
:1001E000833609F43EC0843609F074C057C04130EC
:1001F00069F42BB381E090E0AC0102C0440F551FBD
:100200006A95E2F7BA01622B6BBB08952BB381E0CC
:1002100090E0AC0102C0440F551F6A95E2F7BA01A5
:10022000609562236BBB0895413069F428B381E087
:1002300090E0AC0102C0440F551F6A95E2F7BA0185
:10024000622B68BB089528B381E090E0AC0102C046
:10025000440F551F6A95E2F7BA016095622368BBA7
:100260000895413069F425B381E090E0AC0102C00B
:10027000440F551F6A95E2F7BA01622B65BB0895DA
:1002800025B381E090E0AC0102C0440F551F6A9590
:10029000E2F7BA016095622365BB0895413069F4C5
:1002A00022B381E090E0AC0102C0440F551F6A9573
:1002B000E2F7BA01622B62BB089522B381E090E0BD
:1002C000AC0102C0440F551F6A95E2F7BA01609570
:1002D000622362BB08958434B1F1853438F48234EA
:1002E000E1F0833428F58134C1F50CC08236A9F0E1
:1002F000833618F4813689F505C08336C9F0843613
:1003000061F521C029B330E0C90102C095958795F8
:100310006A95E2F7982F917020C026B330E0C901AA
:1003200002C0959587956A95E2F7982F917015C050
:1003300023B330E0C90102C0959587956A95E2F72D
:10034000982F91700AC020B330E0C90102C0959582
:1003500087956A95E2F7982F9170892F08958434D4
:1003600009F43DC0853440F48234F9F0833450F50B
:10037000813409F040C00CC08236B9F0833618F4DD
:100380008136C9F505C08336E9F08436A1F527C06A
:100390002BB381E090E0AC0102C0440F551F6A9579
:1003A000E2F7BA0162276BBB089528B381E090E0C1
:1003B000AC0102C0440F551F6A95E2F7BA016227EB
:1003C00068BB089525B381E090E0AC0102C0440F02
:1003D000551F6A95E2F7BA01622765BB089522B3FB
:1003E00081E090E0AC0102C0440F551F6A95E2F72E
:1003F000BA01622762BB08958434D9F0853438F499
:10040000823499F0833498F48134A1F40CC082369C
:1004100061F0833618F4813669F405C0833639F00B
:10042000843641F406C06ABB089567BB089564BB77
:10043000089561BB08958434D9F0853438F482344A
:1004400099F0833498F48134A1F40CC0823661F0C1
:10045000833618F4813669F405C0833639F0843662
:1004600041F406C06BBB089568BB089565BB089551
:1004700062BB08958434D9F0853438F4823499F01D
:10048000833498F48134A1F40CC0823661F0833651
:1004900018F4813669F405C0833639F0843641F4A6
:1004A00006C089B3089586B3089583B3089580B3D1
:1004B0000895843409F1853438F48234A9F0833402
:1004C000B8F48134E1F40CC0823671F0833618F44C
:1004D0008136A9F405C0833659F0843681F40CC006
:1004E0008BB380958BBB089588B3809588BB0895A6
:1004F00085B3809585BB089582B3809582BB0895AE
:10050000843409F480C0853448F48234C1F18334E2
:1005100008F057C0813409F097C00FC0823679F1D6
:10052000833620F4813609F08FC007C0833609F482
:1005300048C0843609F088C066C0413091F42BB3BE
:1005400081E090E0AC0102C0440F551F6A95E2F7CC
:10055000BA01822F842B8BBB8AB3609568236ABB58
:1005600008952BB381E090E0AC0102C0440F551F09
:100570006A95E2F7BA01609562236BBB089541303A
:1005800091F428B381E090E0AC0102C0440F551F04
:100590006A95E2F7BA01822F842B88BB87B36095F6
:1005A000682367BB089528B381E090E0AC0102C0E6
:1005B000440F551F6A95E2F7BA016095622368BB44
:1005C0000895413091F425B381E090E0AC0102C080
:1005D000440F551F6A95E2F7BA01822F842B85BB21
:1005E00084B36095682364BB089525B381E090E0EF
:1005F000AC0102C0440F551F6A95E2F7BA0160953D
:10060000622365BB0895413091F422B381E090E00C
:10061000AC0102C0440F551F6A95E2F7BA01822F60
:10062000842B82BB81B36095682361BB089522B39C
:1006300081E090E0AC0102C0440F551F6A95E2F7DB
:10064000BA016095622362BB08956F70843451F1E2
:10065000853438F48234C1F08334E8F4813441F5D0
:100660000CC0823689F0833618F4813609F505C04E
:10067000833689F08436E1F415C08BB3807F8BBB61
:100680008BB3682B6BBB089588B3807F88BB88B31E
:10069000682B68BB089585B3807F85BB85B3682BC5
:1006A00065BB089582B3807F82BB82B3682B62BB37
:1006B00008956295607F843451F1853438F4823432
:1006C000C1F08334E8F4813441F50CC0823689F0FE
:1006D000833618F4813609F505C0833689F08436EF
:1006E000E1F415C08BB38F708BBB8BB3682B6BBBE6
:1006F000089588B38F7088BB88B3682B68BB089552
:1007000085B38F7085BB85B3682B65BB089582B3B5
:100710008F7082BB82B3682B62BB08950E941E0556
:100720008CE00E94F7041FBC81EC8EBD80E288BF84
:1007300008B605FEFDCF86B597B5909383008093EC
:10074000820080E288BF81E88EBD08B605FEFDCF3D
:1007500080E288BF86B597B5909379008093780042
:1007600081EC8EBD08B605FEFDCF80E288BF86B560
:1007700097B590937F0080937E001EBC809182008D
:1007800090918300409178005091790084179507EB
:1007900008F0C7C020917E0030917F0042175307B8
:1007A00008F0BFC0481B590B50937D0040937C005C
:1007B0006901C81AD90AD0928100C092800060E015
:1007C00070E0CB01BA010E9436074B015C01EE24B8
:1007D000FF24C701B6010E9436079B01AC01C50189
:1007E000B4010E94A20620E030E048EC52E40E94EE
:1007F000C4070E940A07DC01CB0190938500809317
:10080000840060E072E18AE790E0A70196010E940F
:100810004E0830937B0020937A0080E690E00E949F
:1008200091058091840090918500CAE0D0E0BE01DE
:100830000E942708862F805D0E946A0580918400AF
:1008400090918500BE010E942708805D0E946A0584
:1008500085E20E946A0582E061E00E94B005609135
:100860007A0070917B0080E090E020EA36E841E079
:1008700050E00E947008CA01B9012AE030E040E06F
:1008800050E00E947008862F805D0E946A0580916A
:100890007A0090917B0060E177E20E942708CB010B
:1008A000BE010E942708805D0E946A0580917A003F
:1008B00090917B0068EE73E00E942708CB01BE0197
:1008C0000E942708805D0E946A0580917A009091BD
:1008D0007B0064E670E00E942708CB01BE010E9405
:1008E0002708805D0E946A0580917A0090917B00C4
:1008F000BE010E942708CB01BE010E942708805D2F
:100900000E946A0580917A0090917B00BE010E944E
:100910002708805D0E946A0586E690E00E949105A6
:1009200006C00E94A60589E690E00E949105FFCFCF
:10093000AF92BF92CF92DF92EF92FF920F931F93ED
:10094000CF93DF935C01FB01309749F1CB0100E0CD
:1009500010E02AE030E00F5F1F4FB9010E943B0812
:10096000CB010097C1F7680110161106D4F4E50118
:10097000C00FD11F20E030E00F2EFAE0EF2EFF2451
:10098000F02DCF01B7010E943B08E62FF72F805DC5
:100990008A932F5F3F4F2C153D0599F702C000E069
:1009A00010E00A0D1B1DF8011082DF91CF911F91FD
:1009B0000F91FF90EF90DF90CF90BF90AF90089590
:1009C00082E460E041E00E94DA008FE99FE0019755
:1009D000F1F700C0000082E460E040E00E94DA002D
:1009E0008FE99FE00197F1F700C000000895CF93D1
:1009F000C82F682F62956F7081E490E070E00E94CC
:100A0000250382E461E040E00E94DA000E94E004F5
:100A10008FEC97E00197F1F700C0000081E490E0CF
:100A20006C2F70E00E9425030E94E0048FEC97E099
:100A30000197F1F700C00000CF91089581E460E0D4
:100A400041E00E94490081E461E041E00E944900E8
:100A500081E462E041E00E94490081E463E041E01A
:100A60000E94490082E460E041E00E94490082E483
:100A700061E041E00E94490082E00E94F7048FE1BA
:100A80009EE40197F1F700C0000088E20E94F7049D
:100A90008FEC97E00197F1F700C0000081E00E9421
:100AA000F7048FE19EE40197F1F700C0000086E0B3
:100AB0000E94F7048FEC97E00197F1F700C0000067
:100AC0008EE00E94F7048FEC97E00197F1F700C0E9
:100AD00000000895CF93C82F682F62956F7081E44E
:100AE00090E070E00E94250382E461E041E00E9412
:100AF000DA000E94E0048FEC97E00197F1F700C064
:100B0000000081E490E06C2F70E00E9425030E94B9
:100B1000E0048FEC97E00197F1F700C00000CF915F
:100B20000895CF93DF93EC018881882331F02196DB
:100B30000E946A0589918823D9F78FEC97E0019785
:100B4000F1F700C00000DF91CF91089581E00E948D
:100B5000F7048FE19EE40197F1F700C000000895CB
:100B6000282F2150223070F4662371F0613170F427
:100B7000813019F4962F91580AC0823041F4962F93
:100B8000915405C090E803C090E801C090E8892F17
:100B90000E94F7048FEC97E00197F1F700C0000086
:100BA000089583B7886083BF80E58CBF83B7816079
:100BB00083BF83B7846083BF789489B7826089BF1D
:100BC00008950F931F93CF93DF93EC018B0182E67F
:100BD00063E041E00E94490083B7886083BFCC0F87
:100BE000DD1FC09F9001C19F300DD09F300D11249B
:100BF00040E050E060E072E18AE790E00E944E0839
:100C0000CA01B9010E94360720E030E040E85FE306
:100C10000E943D060E940A076CBF83B7816083BFB4
:100C200083B7846083BF83B7806183BFDF91CF9137
:100C30001F910F91089582B5886082BD85B581604E
:100C400085BD85B5846085BD789489B7806489BF8A
:100C5000089581EC8EBD08B605FEFDCF80E288BF09
:100C600086B597B5089581E88EBD08B605FEFDCF1F
:100C700080E288BF86B597B508955058BB27AA274C
:100C80000ED048C139D130F03ED120F031F49F3F31
:100C900011F41EF42EC10EF4E095E7FB24C1E92FF8
:100CA0004AD180F3BA17620773078407950718F0D3
:100CB00071F49EF562C10EF4E0950B2EBA2FA02DB3
:100CC0000B01B90190010C01CA01A0011124FF27F9
:100CD000591B99F0593F50F4503E68F11A16F040F4
:100CE000A22F232F342F4427585FF3CF46953795F3
:100CF0002795A795F0405395C9F77EF41F16BA0BB8
:100D0000620B730B840BBAF09150A1F0FF0FBB1F65
:100D1000661F771F881FC2F70EC0BA0F621F731FAE
:100D2000841F48F4879577956795B795F7959E3F0B
:100D300008F0B3CF9395880F08F09927EE0F979599
:100D4000879508950CD0E6C0DED040F0D5D030F0C5
:100D500021F45F3F19F0C7C0511110C1CAC0EBD0D8
:100D600098F39923C9F35523B1F3951B550BBB2772
:100D7000AA2762177307840738F09F5F5F4F220F1F
:100D8000331F441FAA1FA9F333D00E2E3AF0E0E818
:100D900030D091505040E695001CCAF729D0FE2F64
:100DA00027D0660F771F881FBB1F261737074807F6
:100DB000AB07B0E809F0BB0B802DBF01FF279358AC
:100DC0005F4F2AF09E3F510568F08DC0D7C05F3F4E
:100DD000ECF3983EDCF3869577956795B795F79594
:100DE0009F5FC9F7880F911D9695879597F908958C
:100DF000E1E0660F771F881FBB1F62177307840728
:100E0000BA0720F0621B730B840BBA0BEE1F88F736
:100E1000E095089598D088F09F5790F0B92F9927C2
:100E2000B751A0F0D1F0660F771F881F991F1AF0F5
:100E3000BA95C9F712C0B13081F09FD0B1E00895E2
:100E40009CC0672F782F8827B85F39F0B93FCCF363
:100E5000869577956795B395D9F73EF490958095EB
:100E6000709561957F4F8F4F9F4F0895E89409C00B
:100E700097FB3EF490958095709561957F4F8F4FCD
:100E80009F4F9923A9F0F92F96E9BB279395F695E3
:100E9000879577956795B795F111F8CFFAF4BB0F61
:100EA00011F460FF1BC06F5F7F4F8F4F9F4F16C0C5
:100EB000882311F096E911C0772321F09EE8872F4F
:100EC000762F05C0662371F096E8862F70E060E00B
:100ED0002AF09A95660F771F881FDAF7880F969584
:100EE000879597F9089597F99F6780E870E060E02B
:100EF00008959FEF80EC089500240A9416161706B3
:100F000018060906089500240A94121613061406FA
:100F100005060895092E0394000C11F4882352F05D
:100F2000BB0F40F4BF2B11F460FF04C06F5F7F4F15
:100F30008F4F9F4F089557FD9058440F551F59F0FC
:100F40005F3F71F04795880F97FB991F61F09F3FB6
:100F500079F087950895121613061406551FF2CFDF
:100F60004695F1DF08C0161617061806991FF1CF2F
:100F700086957105610508940895E894BB27662756
:100F80007727CB0197F908950BD0C4CFB5DF28F0B0
:100F9000BADF18F0952309F0A6CFABCF1124EECF1E
:100FA000CADFA0F3959FD1F3950F50E0551F629FC4
:100FB000F001729FBB27F00DB11D639FAA27F00DB2
:100FC000B11DAA1F649F6627B00DA11D661F829FD9
:100FD0002227B00DA11D621F739FB00DA11D621FBE
:100FE000839FA00D611D221F749F3327A00D611DDB
:100FF000231F849F600D211D822F762F6A2F1124BD
:101000009F5750408AF0E1F088234AF0EE0FFF1F0F
:10101000BB1F661F771F881F91505040A9F79E3F46
:10102000510570F060CFAACF5F3FECF3983EDCF340
:10103000869577956795B795F795E7959F5FC1F783
:10104000FE2B880F911D9695879597F90895AA1BF9
:10105000BB1B51E107C0AA1FBB1FA617B70710F0A3
:10106000A61BB70B881F991F5A95A9F780959095D5
:10107000BC01CD01089597FB092E07260AD077FD04
:1010800004D0E5DF06D000201AF4709561957F4FFB
:101090000895F6F7909581959F4F0895A1E21A2E35
:1010A000AA1BBB1BFD010DC0AA1FBB1FEE1FFF1F0C
:1010B000A217B307E407F50720F0A21BB30BE40B5C
:1010C000F50B661F771F881F991F1A9469F76095A3
:1010D0007095809590959B01AC01BD01CF0108955D
:1010E00097FB092E05260ED057FD04D0D7DF0AD076
:1010F000001C38F450954095309521953F4F4F4F47
:101100005F4F0895F6F790958095709561957F4FA4
:0A1110008F4F9F4F0895F894FFCF12
:10111A00647574793D00687A006F7574206F662073
:06112A0072616E676500B2
:00000001FF
